:1000000099C0B3C0B2C0B1C0B0C0AFC0AEC0ADC087
:10001000ACC0ACC0AAC0A9C0A8C0A7C0A6C0A5C09B
:10002000A4C0A3C0A2C0A1C0A0C09FC09EC09DC0CC
:100030009CC09BC000FFFFFFFFFFFFFFFFFFFFFF14
:10004000FFFFFFFFFFFFFFFFFFFFFFFFFFFFFFFFC0
:10005000FFFFFFFFFFFFFFFFFFFFFFFFFFFFFFFFB0
:10006000FFFFFFFFFFFFFFFFFFFFFFFFFFFFFFFFA0
:10007000FFFFFFFFFFFFFFFFFFFFFFFFFFFFFFFF90
:10008000FFFFFFFFFFFFFFFFFFFFFFFFFFFFFFFF80
:10009000FFFFFFFFFFFFFFFFFFFFFFFFFFFFFFFF70
:1000A000FFFFFFFFFFFFFFFFFFFFFFFFFFFFFFFF60
:1000B000FFFFFFFFFF000000000000000000000045
:1000C0000000000000000000000000000000000030
:1000D0000000000000000000000000000000000020
:1000E0000000000000000000000000000000000010
:1000F0000000000000000000000000000000000000
:1001000000000000000000000000000000000000EF
:1001100000000000000000000000000000000000DF
:1001200000000000000000000000000000000000CF
:100130000000000011241FBECFEFD4E0DEBFCDBF12
:1001400011E0A0E0B1E0EAEBF4E002C005900D920E
:10015000A430B107D9F711E0A4E0B1E001C01D92CD
:10016000AE30B107E1F727D1A6C14ACF1F920F9257
:100170000FB60F9211242F933F934F935F938F935A
:100180009F93EF93FF93E0910B01F0E0EC5CFF4F46
:10019000E4918E2F90E0E0910901F0E0EC5CFF4FDC
:1001A000E491F0E09695879520910C012230B1F40E
:1001B000209106013091070120583F4F30930701ED
:1001C0002093060137FF1FC02FEF3FE73093070151
:1001D0002093060121E020930C0115C020910C0111
:1001E000213089F4209106013091070148E1213046
:1001F000340718F02450304002C020E038E130933A
:1002000007012093060196958795F695E7958E0F41
:100210009F1F2091060130910701220F232F221FDB
:10022000330B319530E0829FA001839F500D929F48
:10023000500D11245093B40020910C0180910A01BB
:1002400090910B01222329F5009771F08C559A4F5C
:1002500090930B0180930A0125E0843A920720F4E1
:1002600010920B0110920A018091080190910901EE
:100270000097F9F08A5F994F9093090180930801E4
:1002800046E086309407A8F4109209011092080104
:1002900010C08C559A4F90930B0180930A01809166
:1002A0000801909109018A5F994F90930901809309
:1002B0000801FF91EF919F918F915F914F913F9135
:1002C0002F910F900FBE0F901F901895282F392F48
:1002D000C90107C0EFECF7E03197F1F700C000006B
:1002E00001970097B9F7089586B3817026B191E020
:1002F00024FD90E089230895B09B06C0109205016B
:100300001092040159985A9886B185FF03C086B1AE
:1003100083FD2AC081E086BB109285001092840084
:1003200086B185FD0FC08091040190910501823056
:10033000910511F4599A06C081E090E0909305016F
:100340008093040186B183FD0FC0809104019091D8
:1003500005018130910511F45A9A089582E090E0E8
:100360009093050180930401089510920C015E980A
:10037000289A5F9A8FEF91EEA4E081509040A040C0
:10038000E1F700C000005D9A1092B40001C0B4DF34
:10039000ABDF8823E1F78FEF90E7A2E08150904038
:1003A000A040E1F700C000005D9881E080930C015F
:1003B00080E090E00895AF92BF92CF92DF92EF92EB
:1003C000FF920F931F93CF93DF9310920D0114B8F8
:1003D0001AB815B81BB8209A579A569A559A519A36
:1003E000529A5098589A3C983D983B98539A83E279
:1003F0008093B00081E08093B100809170008160B3
:10040000809370001092800084E08093810014BC7F
:1004100085E085BD789482E080930C01C0E0D0E057
:10042000EE24FF24CC24DD2400E010E0AA24A394D1
:1004300042E0B42E59DF882319F097DFC0E0D0E006
:100440005BDFA89B13C0A5BA0430110519F00F5F3C
:100450001F4F0CC00894C11CD11C0894E11CF11C56
:10046000C431D10508F4219600E010E083E0C816FD
:10047000D10421F4B0920C01CC24DD2484E0E816F0
:10048000F10431F45F9B02C028980EC05F9A0CC043
:1004900088E0E816F10441F485B180FF04C05F985C
:1004A000EE24FF2401C0289AC431D10519F65E9AC2
:0A04B000C5E1D0E0BFCFF894FFCF04
:0404BA00A405060689
:00000001FF
